:020000020000FC
:020000003CC002
:1000400023C1F203FA0302040A0412041A0422046C
:100050002A0432043A0482038A0392039A03A20315
:10006000AA03B203BA03C203CA03D203DA03E20348
:10007000EA0342044A0452045A042098289A3A9AFD
:10008000429A239A439A13E015BD41E040936E00D3
:10009000C9EBC09326007894C4C003B000FA2EF0D8
:1000A00010E010936E0005C0F8CF11E010936E00C1
:1000B00000C05B9A5A9A599A589A539852985198F4
:1000C0005098579A569A559A549A00005F985E9A9B
:1000D0005D9A5C9A000000000000489B60C0499B4C
:1000E0004CC04A9B47C04B9B42C000005C9A5D9A43
:1000F0005E985F9A000000000000489B4DC0499B3D
:1001000033C04A9B2EC04B9B29C000005C9A5D986F
:100110005E9A5F9A00000000489B3BC0499B1BC051
:100120004A9B16C04B9B11C05C985D9A5E9A5F9A81
:100130000000489B2BC0499B26C04A9B03C04B9B99
:100140001FC030C000E090E0A8CF01E090E0A5CF54
:1001500002E090E0A2CF03E090E09FCF04E090E0C7
:100160009CCF05E090E099CF06E090E096CF07E0C5
:1001700090E093CF08E090E090CF09E090E08DCF41
:100180000AE090E08ACF0BE090E087CF0CE090E0AF
:1001900084CF0DE090E081CF0EE090E07ECF0FE0C5
:1001A00090E07BCF913011F002D0FCCF76CF088762
:1001B0002395253029F02F8791E0031719F023C0EC
:1001C00000C05BCF00004298439A18E1612E6B8615
:1001D00018E1712E7C8618E1812E8D8619E1912E11
:1001E0009E8610E001D049CF000001E00000000031
:1001F00038EC0000000000003395D9F70395B1F703
:10020000139591F73ACF13E1212E2B8611E1312E70
:100210003C861AE1412E4D8619E1512E5E863395BA
:100220003CCF18E314B917EC15B921E091E030E0A8
:100230000027222733274427552766277727882733
:10024000CC27D1E0C0E014E118831EE019831AE046
:100250001A8311E11B831CE01C8310E11D8319E14B
:100260001E8318E11F8319E1188719E1198719E125
:100270001A8719E11B8719E11C8719E11D8719E10C
:100280001E8710E01F8709CF1F93DF93CF93FF9343
:10029000EF931FE3C9EBC6BD60E1D1E0C0E0C60F3C
:1002A000B881F0E0E2E4BB0FEB0F1124F11D559192
:1002B0008591E52FF82F1124E40FF11DB4912B9AAD
:1002C000B0FF1B9A2D9A2D982B9AB1FF1B9A2D9A4D
:1002D0002D982B9AB2FF1B9A2D9A2D982B9AB3FF2B
:1002E0001B9A2D9A2D982B9AB4FF1B9A2D9A2D9814
:1002F000615098F61B9A1D9A1D9A000000002B9AD7
:1003000076FF1B9A2D9A2D982B9A75FF1B9A2D9A82
:100310002D982B9A74FF1B9A2D9A2D982B9A73FF68
:100320001B9A2D9A2D982B9A72FF1B9A2D9A2D9815
:100330002B9A71FF1B9A2D9A2D982B9A70FF1B9A5E
:100340002D9A2D984A957695772311F470E446E01E
:100350000E94B7010E94BA010E94BF011C9A1FBFF0
:10036000EF91FF91CF91DF911F91189569EB6A95FD
:10037000F1F70895000000000000000008951C9AA5
:1003800008950E11111F11111100000E1F1F1F0ED5
:1003900000000E10101010110E0000080C0E0C08BA
:1003A00000001F10101E10101F001F10101E101034
:1003B00010001111111F111111001E11111E111128
:1003C00011000E04040404040E001F0404040404B9
:1003D00004000E11101E01110E0011111111111146
:1003E0000E0011191512111111000000000000007B
:1003F00000000E11131519110E00040C040404045E
:100400000E000E11010204081F000E110106011159
:100410000E0002060A121F02020000040E1F0E0444
:100420000000040605050D1818000002060E06025D
:1004300000000004150E150400000C12140815121B
:100440000D00000E1F110A04000000000000000053
:1004500000001111110A0404040000000000000053
:0204600000009A
:00000001FF
